:020000040000fa
:10000000f0ff0320c96401008b1a0100ff230100e7
:100010006b2d0100bf3201002744010000000000e9
:10002000000000000000000000000000b7a4000075
:10003000e726010000000000b7a40000b7a40000fc
:10004000b7a40000b7a40000b7a40000b7a4000044
:10005000b7a40000b7a40000b7a40000b7a4000034
:10006000b7a40000b7a40000b7a40000b7a4000024
:10007000b7a40000b7a40000b7a40000b7a4000014
:10008000b7a40000b7a40000b7a40000b7a4000004
:10009000b7a40000b7a40000b7a40000b7a40000f4
:1000a000b7a40000b7a40000b7a40000b7a40000e4
:1000b000b7a40000b7a40000b7a40000b7a40000d4
:1000c000b7a40000b7a40000b7a40000b7a40000c4
:1000d000b7a40000b7a40000b7a40000b7a40000b4
:1000e000b7a40000b7a4000000000000000000005a
:1000f00000000000b7a40000b7a40000b7a40000ef
:10010000b7a40000b7a4000005e0000005e000006f
:1001100005e0000005e00000b7a40000b7a400005f
:10012000b7a40000b7a40000b7a40000b7a4000063
:10013000b7a40000b7a40000b7a40000b7a4000053
:10014000b7a40000b7a40000b7a40000b7a4000043
:10015000b7a40000b7a40000b7a40000b7a4000033
:10016000b7a40000b7a40000b7a40000b7a4000023
:10017000b7a40000b7a40000b7a40000b7a4000013
:10018000b7a40000b7a40000b7a40000b7a4000003
:1001900025c80100b7a40000b7a40000b7a4000060
:1001a000b7a40000b7a40000b7a40000b7a40000e3
:1001b000b7a40000b7a40000b7a40000b7a40000d3
:1001c000b7a40000b7a40000b7a40000b7a40000c3
:1001d000b7a40000b7a40000b7a40000b7a40000b3
:1001e000b7a40000b7a40000b7a40000ddc9010057
:1001f000b7a40000b7a40000b7a40000b7a4000093
:10020000b7a40000b7a40000b7a40000b7a4000082
:10021000b7a40000b7a40000b7a40000b7a4000072
:10022000b7a40000b7a40000b7a40000b7a4000062
:10023000b7a40000b7a40000b7a40000b7a4000052
:10024000b7a40000b7a40000b7a40000b7a4000042
:10025000b7a40000b7a40000b7a40000b7a4000032
:04026000b7a400003f
:020000040000fa
:10026400f8b500bff8bc08bc9e467047b5a90100ac
:10027400f8b500bff8bc08bc9e46704791a90100c0
:020000040000fa
:08028400a0b30000010000001e
:020000040000fa
:10028c0055736167653a206d6163696e666f200d09
:10029c000a00000045783a206d6163696e666f2034
:1002ac000d0a0000496e746572666163653a20251b
:1002bc007320447269766572205374617469737427
:1002cc006963730d0a0000000d0a205265636569ad
:1002dc00766520537461746973746963730d0a00d5
:1002ec0009206e52784f6b5061636b6574733a20c2
:1002fc0025640d0a09206e527850656e644275664d
:10030c00666572733a2025640d0a09206e52785383
:10031c0063686564427566666572733a2025640d80
:10032c000a00000009206e52784572726f7250619b
:10033c00636b6574733a2025640d0a09206e52783c
:10034c00467261676d656e744572726f72733a2096
:10035c0025640d0a09206e5278427566664e6f74dc
:10036c00417661696c61626c653a2025640d0a0006
:10037c000d0a205472616e736d697420537461742c
:10038c006973746963730d0a0000000009206e54d0
:10039c00784f6b5061636b6574733a2025640d0a5a
:1003ac0009206e547850656e64427566666572738a
:1003bc003a2025640d0a09206e54784572726f72ca
:1003cc005061636b6574733a2025640d0a09206ec5
:1003dc005478517565756546756c6c3a2025640dbd
:1003ec000a0d0a00096e6f7420737570706f727449
:1003fc0065640d0a00000000496e746572666163e5
:10040c00653a2025732048617264776172652052c9
:10041c0065676973746572205374617475730d0a22
:10042c0000000000092025733a20307825780d0a49
:10043c0000000000656e61626c650000656e6162b3
:10044c006c65640064697361626c650064697361f6
:10045c00626c6564000000006e6f6e650000000049
:10046c007017000001000000501200000200000094
:10047c001c05000003000000300500000300000014
:10048c00741700000400000055736167653a20641e
:10049c006e7363203c64656c2f696e666f2f6f6e94
:1004ac002f6f66662f6c6f6f6b75703e200d0a0098
:1004bc0055736167653a202573203c6f6e2f6f660c
:1004cc00663e203c696e746572666163653e203cd5
:1004dc007374726963742f707265663e2f3c636c23
:1004ec006561723e200d0a0045783a202573206f15
:1004fc006e20657468300d0a00000000556e6b6e3e
:10050c006f776e20696e746572666163650d0a00a3
:10051c006f6e0000737472696374000070726566ac
:10052c00000000006f666600636c6561720000007d
:10053c00556e6b6e6f776e206f7074696f6e0d0aef
:10054c000000000025732025730d0a004661696cbc
:10055c00656420746f2025732025730d0a0000003c
:10056c0055736167653a20646e7363206c6f6f6bb3
:10057c007570203c747970653e203c686f73744ec6
:10058c00616d653e200d0a0048656c703a203c6830
:10059c006f73744e616d653e2855524c29202d2089
:1005ac006c6f6f6b20757020666f7220686f737440
:1005bc006e616d650d0a000048656c703a203c74e4
:1005cc007970653e203a2061206f72204120666f61
:1005dc007220495076342061646472657373206ca8
:1005ec006f6f6b75700d0a0048656c703a203c7427
:1005fc007970653e203a2061616161206f72204103
:10060c0041414120666f7220495076362061646406
:10061c0072657373206c6f6f6b75700d0a00000040
:10062c0048656c703a203c747970653e203a2061c4
:10063c006e7920666f7220626f7468204950763430
:10064c0020616e6420495076362061646472657353
:10065c0073206c6f6f6b75700d0a0000646e7363a2
:10066c00206c6f6f6b75703a20636f6d6d616e648b
:10067c0020696e2070726f67726573732e205265dd
:10068c00747279206c617465722e0d0a0000000082
:10069c0041000000610000004141414100000000a8
:1006ac006161616100000000414e5900616e79008a
:1006bc00646e7363206c6f6f6b75703a205b25737f
:1006cc005d204c6f6f6b75702054797065206e6f68
:1006dc007420737570706f727465642e0d0a00004f
:1006ec00646e7363206c6f6f6b75703a20486f7318
:1006fc0074206e616d6520746f6f206c6f6e672e49
:10070c002052657472792e0d0a000000646e7363ba
:10071c00206c6f6f6b75703a207265736f6c7669b5
:10072c006e6720686f73743a20257320666f722091
:10073c00747970653a2573200d0a00005573616752
:10074c00653a20646e73632064656c203c686f733b
:10075c00744e616d653e7c616c6c200d0a0000006e
:10076c0048656c703a203c686f73744e616d653ee1
:10077c002855524c29202d2052656d6f76652074ba
:10078c00686520656e747279206966206578697376
:10079c007473200d0a00000048656c703a20616c7f
:1007ac006c202d2052656d6f766520616c6c207409
:1007bc006865207265736f6c76656420656e747203
:1007cc0079200d0a00000000616c6c005b25735de4
:1007dc00206e6f742070617274206f66207468656f
:1007ec0020444e5320436163686520656e747279b2
:1007fc00200d0a00496e636f6d706c657465206323
:10080c006f6d6d616e64200d0a0000005573616799
:10081c00653a20646e736320696e666f200d0a0062
:10082c0048656c703a20646973706c6179207468e7
:10083c006520444e5320636163686520656e747255
:10084c00792064657461696c73200d0a00000000e6
:10085c00444e5320436c69656e7420697320646f39
:10086c00776e210d0a000000444e5320436c6965dd
:10087c006e74204946202d205374726963743a209b
:10088c0025732c205072656665727265643a20255a
:10089c00730d0a00444e5320436c69656e74202d11
:1008ac002074696d653a2025642c2070656e64692e
:1008bc006e673a2025642c2063757272656e743aeb
:1008cc002025642c20746f74616c3a2025640d0a09
:1008dc0000000000486f73746e616d65203d20252b
:1008ec0073200d0a54696d656f7574203d20256465
:1008fc00200d0a0049507634203d25730d0a000066
:10090c0049507636203d2025730d0a002d2d2d2db6
:10091c002d2d2d2d2d2d2d2d2d2d2d2d2d2d2d2dfb
:10092c002d2d2d2d2d2d2d2d2d2d2d2d2d2d2d2deb
:10093c002d2d2d2d2d2d2d2d2d2d2d2d2d2d2d2ddb
:10094c000d0a00004e6f20444e5320436c69656eb7
:10095c007420436163686520656e747269657320e9
:10096c000d0a0000496e76616c696420496e7075e1
:10097c007420436f6d6d616e64203a5b202573208b
:10098c005d200d0a0000000050696e673a20646f0c
:10099c006e652e2053656e7420256420726571750a
:1009ac00657374732c2072656365697665642025a4
:1009bc0064207265706c6965732e0d0a000000006e
:1009cc0050696e672055736167653a2070696e6770
:1009dc00203c73746f703e2f3c6e616d652f6164ab
:1009ec0064726573733e203c6920696e746572662f
:1009fc006163653e203c6e206e50696e67733e20cd
:100a0c003c74206d73506572696f643e203c73209a
:100a1c0073697a653e0d0a0073746f7000000000f4
:100a2c0050696e673a20636f6d6d616e6420696efc
:100a3c002070726f67726573732e205265747279b1
:100a4c00206c617465722e0d0a00000050696e678f
:100a5c003a20486f7374206e616d6520746f6f203f
:100a6c006c6f6e672e2052657472792e0d0a000021
:100a7c00690000006e0000007400000073000000ac
:100a8c0050696e673a20446174612073697a6520fd
:100a9c00746f6f206269672e204d61783a2025644f
:100aac002e2052657472790d0a00000050696e6731
:100abc003a20556e6b6e6f776e20706172616d654a
:100acc007465720d0a00000050696e673a207265f9
:100adc00736f6c76696e6720686f73743a20257338
:100aec000d0a0000556e6b6e6f776e206865617035
:100afc0020747970652e205573653a205b312c205b
:100b0c0025645d0d0a0000004e6f20686561702041
:100b1c00696e666f2065786973747320666f7220d6
:100b2c00747970653a202573210d0a00486561704f
:100b3c0020747970653a2025732e20496e6974698a
:100b4c00616c2063726561746564206865617020f6
:100b5c0073697a653a2025642042797465730d0aad
:100b6c0000000000416c6c6f6361626c6520626c0c
:100b7c006f636b20686561702073697a653a202514
:100b8c00642042797465730d0a000000416c6c207e
:100b9c00617661696c61626c652068656170207357
:100bac00697a653a2025642042797465732c206833
:100bbc006967682077617465726d61726b3a202584
:100bcc00640d0a004c617374206865617020657255
:100bdc00726f723a20307825780d0a004e6f2054cf
:100bec007261636520696e666f20657869737473d2
:100bfc002e0d0a00537461636b2075702066616959
:100c0c006c65640d0a000000537461636b20757091
:100c1c00207375636365656465640d0a00000000ec
:100c2c0055736167653a20737461636b203c757012
:100c3c002f646f776e3e203c7072657365727665bb
:100c4c003e0d0a0045783a20737461636b20646f23
:100c5c00776e2070726573657276650d0a00000000
:100c6c0075700000537461636b20616c7265616414
:100c7c0079207570210d0a005475726e20537461c1
:100c8c00636b20646f776e20616e64207468656e90
:100c9c00207570210d0a00005265737461727469bd
:100cac006e672074686520737461636b2077697458
:100cbc006820256420696e746572666163652873ab
:100ccc00290d0a00646f776e000000005374616395
:100cdc006b20646f776e3a2063616e6e6f74206761
:100cec006574206120737461636b2068616e646c41
:100cfc00650d0a00537461636b20646f776e20641a
:100d0c006f6e650d0a00000055736167653a2069c6
:100d1c0066203c696e746572666163653e203c6456
:100d2c006f776e2f75703e200d0a000045783a20c3
:100d3c006966205049433332494e5420646f776eb4
:100d4c00200d0a00556e6b6e6f776e20696e7465a0
:100d5c00726661636520737065636966696564209a
:100d6c000d0a00005468697320696e7465726661bf
:100d7c00636520616c72656164792075700d0a0081
:100d8c004f7065726174696f6e206661696c656421
:100d9c002e204e6f20636f6e666967757261746981
:100dac006f6e0d0a0000000066756c6c0000000090
:100dbc005468697320696e7465726661636520613d
:100dcc006c726561647920646f776e0d0a000000a7
:100ddc0057726f6e6720706172616d6574657220f9
:100dec00737065636966696564200d0a0000000014
:100dfc004f7065726174696f6e2073756363657390
:100e0c007366756c210d0a004f7065726174696fa1
:100e1c006e206661696c6564210d0a00557361670b
:100e2c00653a207365746d6163203c696e746572fc
:100e3c00666163653e203c783a783a783a783a783d
:100e4c003a783e200d0a000045783a207365746d9f
:100e5c006163205049433332494e542061613a62f8
:100e6c00623a63633a64643a65653a6666200d0ad1
:100e7c0000000000617267765b325d3a2025730dcd
:100e8c000a000000496e76616c6964204d41432074
:100e9c006164647265737320737472696e67200d7c
:100eac000a000000536574204d4143206164647254
:100ebc00657373206661696c65640d0a000000003f
:100ecc005365742042494f53204e616d65204f4b42
:100edc000d0a00005365742042494f53204e616d3a
:100eec0065206661696c65640d0a00005573616765
:100efc00653a2073657462696f73203c696e746522
:100f0c0072666163653e203c782e782e782e783e92
:100f1c00200d0a0045783a2073657462696f73205e
:100f2c005049433332494e54204d434850424f416f
:100f3c0052445f3239200d0a0000000053657420c2
:100f4c00676174657761792061646472657373207d
:100f5c004f4b0d0a000000005365742067617465e7
:100f6c007761792061646472657373206661696c62
:100f7c0065640d0a0000000055736167653a2073c3
:100f8c0065746777203c696e746572666163653e53
:100f9c00203c697076342f362061646472657373fb
:100fac003e203c76616c696454696d653e200d0a87
:100fbc000000000045783a2073657467772050492b
:100fcc00433332494e54203139322e3136382e309b
:100fdc002e31200d0a000000496e76616c69642088
:100fec004950206164647265737320737472696e06
:100ffc0067200d0a000000005365742069702061a1
:10100c00646472657373204f4b0d0a005365742032
:10101c0069702061646472657373206661696c65c4
:10102c00640d0a0055736167653a207365746970c5
:10103c00203c696e746572666163653e203c697024
:10104c0076342f3620616464726573733e203c697c
:10105c007076346d61736b2f6970763620707265a3
:10106c00666978206c656e3e0d0a000045783a2062
:10107c007365746970205049433332494e542031a2
:10108c0039322e3136382e302e38203235352e323c
:10109c0035352e3235352e30200d0a004e6f20732b
:1010ac0075636820696e7465726661636520697327
:1010bc002075700d0a000000416e20616464726539
:1010cc007373207365727669636520697320616c34
:1010dc0072656164792072756e6e696e672e20532d
:1010ec00746f7020444843502c205a434c4c2c2095
:1010fc006574632e2066697273740d0a000000001b
:10110c00496e76616c6964204950206d61736b2067
:10111c00737472696e67200d0a0000007375636347
:10112c00657373006661696c656400005573616773
:10113c00653a20736574646e7320312f32203c69dc
:10114c006e746572666163653e203c782e782e78ed
:10115c002e783e200d0a000045783a2073657464a1
:10116c006e7320312065746830203235352e32355f
:10117c00352e3235352e30200d0a0000556e6b6e33
:10118c006f776e20444e5320696e6465780d0a00ab
:10119c0053657420444e5320256420616464726549
:1011ac0073732025730d0a006e6f74206769766562
:1011bc006e0000004e6f6e65000000006661696c89
:1011cc000000000055736167653a202573203c6967
:1011dc006e746572666163653e203c6f6e2f6f6640
:1011ec00662f72656e65772f726571756573742fd6
:1011fc00696e666f3e200d0a0000000045783a20ab
:10120c002573205049433332494e54206f6e200dc4
:10121c000a00000072656e657700000072657175da
:10122c006573740052657175657374206e656564c1
:10123c007320616e20495020616464726573730d74
:10124c000a000000696e666f0000000044484350bd
:10125c00207374617475733a2025642028202564ea
:10126c00203d3d20426f756e64292c2074696d659c
:10127c003a2025640d0a000044484350206c6561f7
:10128c0073652073746172743a2025642c20647524
:10129c00726174696f6e3a202564730d0a00000048
:1012ac00444843502072656e65772074696d653ac9
:1012bc002025642c20726562696e642074696d65ea
:1012cc003a2025640d0a00004448435020616464b0
:1012dc00726573733a2025730d0a0000444843501d
:1012ec00207365727665723a2025730d0a00000032
:1012fc004448435020626f6f74206e616d653a20d4
:10130c0025730d0a00000000444843502054696db9
:10131c006520736572766572733a2025642c2025de
:10132c00730d0a0044484350204e5450207365728c
:10133c00766572733a2025642c2025730d0a000003
:10134c00444843503a206661696c656420746f2090
:10135c0067657420696e666f0d0a00002573202581
:10136c00732025730d0a00007375636365737366d0
:10137c00756c00006661696c6564210073657400ae
:10138c006765740044656661756c7420696e74657c
:10139c007266616365207365742025730d0a000005
:1013ac0044656661756c7420696e74657266616300
:1013bc00652069733a2025730d0a00005573616727
:1013cc00653a206465666e6574207365742f676575
:1013dc0074203c696e746572666163653e0d0a002b
:1013ec0045783a206465666e657420736574206573
:1013fc007468300d0a00000055500000444f574ee1
:10140c000000000052656164790000004e6f74208a
:10141c00526561647900000055736167653a206e0e
:10142c006574696e666f0d0a0000000045783a20fd
:10143c006e6574696e666f0d0a0000002d2d2d2de2
:10144c002d2d2d2d2d2d20496e74657266616365d1
:10145c00203c25732f25733e202d2d2d2d2d2d2d2c
:10146c002d2d2d200d0a0000496e74657266616386
:10147c006520697320646f776e0d0a00486f737472
:10148c00204e616d653a202573202d204e424e531f
:10149c002064697361626c6564200d0a00000000b1
:1014ac004950763420416464726573733a20257315
:1014bc000d0a00004d61736b3a2025730d0a000074
:1014cc00476174657761793a2025730d0a00000035
:1014dc00444e53313a2025730d0a0000444e5332ca
:1014ec003a2025730d0a00004d414320416464727b
:1014fc006573733a2025730d0a00000064686370ed
:10150c002069732025730d0a000000004c696e6b76
:10151c002069732025730d0a000000005374617458
:10152c0075733a2025730d0a00000000646566612e
:10153c00756c74204950206164647265737300008b
:10154c002573206973204f4e0d0a00006468637088
:10155c000000000050696e673a2077726f6e67204a
:10156c007265706c792072656365697665642e208e
:10157c004d61736b3a2030782532780d0a000000eb
:10158c0050696e673a207265706c795b25645d20da
:10159c0066726f6d2025733a2074696d65203d204d
:1015ac0025646d730d0a000050696e673a20444e35
:1015bc0053206661696c75726520666f72202573a5
:1015cc000d0a0000444e53204c6f6f6b75703a201f
:1015dc00444e53206661696c75726520666f72208b
:1015ec0025732c206572723a2025640d0a000000c8
:1015fc00444e53204c6f6f6b75703a207265717549
:10160c006573742074696d656f75742e0d0a000016
:10161c004c6f6f6b757020416e737765723a0d0a63
:10162c002d2d2d2d2d2d2d2d2d2d2d2d2d2d2d2dde
:10163c002d2d2d2d2d2d0d0a000000004e6f204c50
:10164c006f6f6b757020656e74727920666f722087
:10165c005b25735d0d0a00005b25735d20412049fd
:10166c005076342041646472657373203a2025648b
:10167c002e25642e25642e25640d0a005b25735dd2
:10168c0020414141412049507636204164647265c5
:10169c007373203a25730d0a0000000055736167bf
:1016ac00653a202573203c696e74657266616365ca
:1016bc003e203c6f6e2f6f66663e200d0a000000c8
:1016cc00556e6b6e6f776e207365727669636520ed
:1016dc0025730d0a000000003a20737461636b20bf
:1016ec00636f6d6d616e64730000000074637069ec
:1016fc00700000004661696c656420746f20637231
:10170c006561746520544350495020436f6d6d6181
:10171c006e64730d0a000000544350495020636fef
:10172c006d6d616e6473207461736b207265676993
:10173c007374726174696f6e206661696c65640d97
:10174c000a000000696e7465726e616c0000000026
:10175c00706f6f6c0000000065787465726e616c60
:10176c000000000064656c006c6f6f6b757000009e
:10177c006e6574696e666f003a20476574206e65fd
:10178c0074776f726b20696e666f726d6174696fbe
:10179c006e0000006465666e657400003a20536547
:1017ac00742f4765742064656661756c7420696e6e
:1017bc0074657266616365003a2044484350206347
:1017cc006c69656e7420636f6d6d616e647300007f
:1017dc007a636c6c000000003a205475726e205acb
:1017ec00434c4c206f6e2f6f6666000073657464fb
:1017fc006e7300003a2053657420444e532061648c
:10180c006472657373000000736574697000000086
:10181c003a20536574204950206164647265737377
:10182c0020616e64206d61736b00000073657467da
:10183c00770000003a205365742047617465776126
:10184c00792061646472657373000000736574625f
:10185c00696f73003a2053657420686f7374277333
:10186c00204e657442494f53206e616d6500000037
:10187c007365746d616300003a20536574204d41ab
:10188c004320616464726573730000006966000034
:10189c003a204272696e6720616e20696e746572bf
:1018ac00666163652075702f646f776e00000000b1
:1018bc00737461636b0000003a20537461636b2096
:1018cc007475726e206f6e2f6f666600686561703e
:1018dc00696e666f000000003a20436865636b20f8
:1018ec0068656170207374617475730070696e67dc
:1018fc00000000003a2050696e6720616e2049504c
:10190c00206164647265737300000000646e73631d
:10191c00000000003a20444e5320636c69656e74dd
:10192c0020636f6d6d616e64730000006d6163699f
:10193c006e666f003a20436865636b204d4143200f
:0c194c0073746174697374696373000044
:020000040000fa
:101958002de9f04f91b00f210a201bf09df903905b
:1019680010f0010f40f02185039b13f0020f40f0a7
:10197800408511b0bde8f08fd9f8187007f1100351
:101988000793fb680d933b690e9300228df83c206a
:1019980006238df83d302b0a43ea0523adf83e3087
:1019a8000c210da816f0a0f8c3439bb2b9f8222069
:1019b80012f0040f33d02a464146484614f095ffea
:1019c8000490049b002b40f05986404616f0aefb6d
:1019d80098f80cb04fea1b1b4fea8b030693d9f813
:1019e8001cb0bbf80220002a00f04b86fe89bb8998
:1019f8001e44bbf800301e445640b6b2cf4bd3f855
:101a080000c0bcf1000f00f03f86d9f828e0cc4bad
:101a18001b68059300239a46194610460fe01a469c
:101a28002946404616f060f80490cae7b4f86a20e0
:101a380082422fd001331bb2194663452fd2059a33
:101a480052f82140002cf5d094f86e200b2af1d0e2
:101a580094f86f100129edd8216c09b18e45e9d1b0
:101a6800002ae3d0b4f86a20b242e3d1dbf80010d0
:101a7800a26d9142ded1a16bfa689142dad10121bf
:101a880084f86f10c4f840e0079a204619f04dff1b
:101a9800a24621e0baf1000f08bfa246cae7baf190
:101aa800000f7fd0fb68caf8383001218af86f1020
:101ab800caf840e0079a504619f037ffaaf86a605a
:101ac800bbf80030aaf85830bbf80230aaf85a30f0
:101ad800daf80030caf81030d9f81020938906993e
:101ae8005b1a938198f80d40d8f80870d8f804600c
:101af8009af8373013f0400f57d19af86d306ff3da
:101b080000038af86d309af86e30002b68d0012bec
:101b180000f0ac801435069aa5eb020b1ffa8bfb7c
:101b2800abf1140292b2069214f0010207921abfa6
:101b3800abf1130b1ffa8bf2069a059214f0020f01
:101b480003d0059a013292b20592daf81c50daf8fd
:101b580020209542c0f0db80daf81810daf814007b
:101b6800091aa5eb020ba1eb0b0b1ffa8bfbdaf89a
:101b78005020b51a059a002a00f0e680bbf1000f44
:101b880000f0d280002dc0f2c9805d45c0f0e18030
:101b9800059aabeb0202ab4500f3db80954240f3bc
:101ba800d880c1e06ff00e01fbe300238af87130a2
:101bb8009af8363013f0020f9fd11bf081f8834654
:101bc800baf8683005931bf0a3f8059b00fb03f0f7
:101bd8005c4ba3fb00300beb9010caf824008ce799
:101be80014f0040f2cd114f0100f2ed114f0020fa2
:101bf80037d00136caf85060404612f0b3fbaaf855
:101c08006200504619f03cf901221221504604f0b6
:101c1800c5fa02238af86e30baf87220049b1a407b
:101c280000f03585daf87440002c00f03285daf8d7
:101c38007830d9f82810baf93400a0470221b0e367
:101c4800002150460ef0c1fde6e7caf84c700022ac
:101c58000421504604f0a2fa002150460ef0b5fdca
:101c6800dae7002150460ef0b0fdd5e714f0040f76
:101c7800d2d114f0100f00f00e85daf84c50af42b4
:101c88002ad114f0020fc7d00136caf85060b8f84c
:101c98000e30aaf86630aaf85c30404612f062fbb3
:101ca800aaf86200504619f0ebf8012210215046bc
:101cb80004f074fa03238af86e309af8373013f078
:101cc800400f13d19af836306ff341038af8363053
:101cd8004ff4807304939fe7caf84c7001220421e3
:101ce800504604f05bfacaf84c5095e71af0e8ff42
:101cf8000546baf868401bf00bf800fb04f3114adc
:101d0800a2fb032305eb9313caf82430dae7a2eb0e
:101d1800050b0bf1ff3b1ffa8bfb28e705990a46d9
:101d2800691800293ff735af14f0040f7ff474af3a
:101d380001221021504604f031fa6de7201c0020e2
:101d48001c1c0020d34d62101db1002decdb5d453d
:101d5800eada14f0060f11d114f0100f3ff45caf5b
:101d6800023b072b00f2fe80dfe813f01900240085
:101d7800240024002400fc002400f90114f0040fbe
:101d880008d09af8373043f002038af837304ff416
:101d980000630493002150460ef017fd3ce7daf883
:101da8004c3008939f4220d103238af86e304ff4b9
:101db80080730493daf808c0daf81030bceb03003b
:101dc8001ed4daf84c107a1a121a002a28ddbaf84a
:101dd8006c0000f40170042801d1012a17d00022f8
:101de8001021504604f0daf916e7caf84c700122bf
:101df8000421504604f0d2f9089bcaf84c300be78e
:101e0800daf80410daf80020891a0844d9e7013111
:101e1800caf84c109af86d2042f002028af86d2038
:101e2800daf84c200992daf80c100891a3eb010ead
:101e38008b422fd2daf80400daf80010411ab81ae7
:101e480070440844002838dddaf804200a92daf8e9
:101e58000010521a0b9290422cd89af86c1001f08c
:101e6800ef016ff345118af86c109af836106ff38a
:101e780045118af83610089a0244caf80c200b99c2
:101e88000b449342c0f0ff800a9b9a42c0f05584ed
:101e980000f04fbc0999781a704400280adddaf876
:101ea80004100a460a91daf80010521a0b9290426e
:101eb80040f22084089a93422cd09af86c1011f0c2
:101ec800100f21d011f0200f18d0099aa2eb0e01a3
:101ed800caf84c10089a934207d2daf80430daf8b4
:101ee80000001b1acb1acaf84c30089bcaf81030ed
:101ef8009af8363043f080038af836309af86c3016
:101f080043f020038af86c309af86c3043f01003e1
:101f18008af86c30daf80c309c4500f0bc80b8f8d0
:101f28000e30baf866209a4238bfaaf86630daf856
:101f38004c20b8f80e303b449b1a9bb2baf85c10a0
:101f480031b92bb19af8361041f040018af83610b1
:101f5800aaf85c309af86e30042b00f0d780062b74
:101f680000f0f58014f0200f7ff456ae9af86e203a
:101f7800a2f10803dbb2012b7ff64eae062a3ff42e
:101f88004bae069a002a3dd0002d40f3f380069b05
:101f98002b445b4504ddabeb050b1ffa8bf3069373
:101fa80098f80c301b0908eb83030c93daf81c1023
:101fb800daf81830069a2a440a44934280f0698174
:101fc8005a1a0132521b00f156811ffa82f8012475
:101fd800009443460ca802462944484615f0eaf9fd
:101fe8008346069aa2eb080300949bb20caadaf87f
:101ff8001410484615f0def9584480b2069b834217
:1020080000f05081059bcbb19af86e30033bdbb2f0
:10201800022b84bfdaf81c30caf820309af8363020
:1020280013f0100f40f06d819af8363043f010032a
:102038008af8363013f0080f00f06981079b002bef
:102048003ff4eaaddaf850300133059a324493424e
:102058007ff4e2adcaf85030049b43f4806293b237
:1020680004939af8373043f004038af837309af823
:102078006e30023b032b00f27881dfe813f05d013c
:1020880066016f018601d31a09990b44caf84c30ce
:10209800caf810204ae39af8373013f0010f1dd11f
:1020a80013f0400f06d19af836306ff341038af8df
:1020b800363034e71af004fe0890baf8683009930d
:1020c8001af026fe099b00fb03f34ff47a72b3fb68
:1020d800f2f3089a1344caf82430e4e7daf84c30eb
:1020e8009f427ff41caf9af86c3013f0040f3ff452
:1020f80016af9af836306ff341038af836309af8fb
:1021080037306ff300038af8373008e7974204d076
:1021180014f0200f3ff435af7ee59af86c3013f0d9
:10212800040ff5d01af0ccfd08901af0f1fd41f239
:10213800883303fb00f34ff47a72b3fbf2f3089a87
:102148001344caf8303005238af86e30e0e7974226
:102158007ff462ad002150460ef037fb5ce5daf8fb
:102168004c3001339f427ff457ad002150460ef0aa
:102178002cfb51e598f80c301b09c5eb830343444d
:102188000c932a4493b29b4528bf9b46daf81c104f
:10219800daf8183001eb0b0293425cd25b1a03f1b8
:1021a80001081ffa88f5012400942b460caa48461a
:1021b80015f000f90690abeb050300949bb20caa4e
:1021c800daf81410484615f0f5f8069b034498b25f
:1021d800abeb0803daf81420134458457ff412af28
:1021e800daf850105944caf85010caf81c309af856
:1021f8006e20033ad2b2022a04d8049a42f400723a
:1022080092b20492daf85420b2f1ff3f3ff4faaeea
:10221800a2eb0b0bcaf854b0baf8602012eb0b0211
:1022280024d4bbf1000f3ff7edae1144caf85010ab
:102238001344caf81c30daf81820934206d9daf8a1
:102248001410521ad2431344caf81c304ff0ff330b
:10225800caf85430d6e6012300935b460caa4846d8
:1022680015f0a8f8daf81c305b44b6e74ff0ff33f6
:10227800caf85430c6e6681edaf814209b1ac01a49
:1022880001230093069b0caa0144484615f092f8d6
:10229800b4e601230093069b0caa2944484615f08e
:1022a80089f8abe6daf85430b3f1ff3f13d09d421a
:1022b80017d2069a5119baf86020d018814204d86a
:1022c8008b4202d8431b9bb20693069baaf8603048
:1022d800caf8545096e6caf85450069baaf86030db
:1022e80090e6baf860201a440698411991427ff6a0
:1022f80089ae95423ff686aeeb1a1844aaf86000fc
:1023080080e601221021504603f048ff96e6dbb232
:1023180043f008038af836301af0d2fc04461af063
:10232800f7fc642303fb00f34ff47a72b3fbf2f378
:102338001c44caf82c4081e609238af86e30012231
:102348001121504603f02aff66e408238af86e300c
:102358009af86d3013f0010f07d05de4daf84c30cd
:102368009f4208d006238af86e3001221021504679
:1023780003f014ff50e400221021504603f00eff32
:10238800002150460ef021fa46e400221021504662
:1023980003f004ff002150460ef017fa3ce46ff0fa
:1023a8000d010a22484619f0e1fe0a201bf0d8fd6b
:1023b800814600283ff4d8aab9f82050132deed949
:1023c800d9f81c8098f80c301b09042b0bd9b5ebf5
:1023d800830f0bdbb9f8223013f4007f3ff4ccaa4b
:1023e8006ff00e01dde76ff00d01dae76ff00d0118
:1023f800d7e7bd4b1b68002b3ff4bbaa00252b4633
:10240800dff8e892dff8e8a2dff8dc82dee01af015
:1024180057fca36ac01a0028a8bf1026ede01af0de
:102428004ffce36ac01a0028c0f2ed8094f86e30c1
:10243800052b00f09981102687f0010231462046cd
:1024480003f0acfee7e01af03bfc236bc01a00284f
:10245800c0f2de8001221421204603f09ffe0021f5
:1024680020460ef0b2f9a9e094f8366006f00106ad
:102478000121204612f016fd94f8363043f001038e
:1024880084f836304ff480520021204617f071f955
:10249800002e40f0938094f836306ff3000384f8f0
:1024a80036300a2384f86e3088e01af009fc636a33
:1024b800c01a0028c0f2828094f86e104b1e082bb8
:1024c8007ad8dfe803f005425661796979797100b5
:1024d80094f87030032b28d80221002694f8703025
:1024e800013384f87030a36c5b00a3642069e26850
:1024f800831a9bb2904204d260682768c01b0344c9
:102508009bb2e06cc01ae064b4f85c000344a4f821
:102518005c3022610022204603f040fe002e4dd0a0
:10252800002120460ef051f948e0042384f8703069
:102538001af0eefb4ff47a7303fb00f3aafb0323b4
:102548009b091b01a3640221c7e794f87030022b92
:1025580040f2c08094f8366006f001031e46002b56
:1025680018bf1421002fb9d10122204603f016fe0e
:10257800d4e794f87030042b40f2ae80042384f83a
:102588006e3011210026ede794f87030042b40f2ec
:10259800a58014210126e5e794f87030042b40f259
:1025a8009f8014210126dde794f87030042b40f257
:1025b800998014210126d5e7002e5cd101352db272
:1025c8002b46d8f800209542bff4d3a9d9f80020ab
:1025d80052f82340002cf1d094f86e300b2bedd03c
:1025e80094f8363013f0c0061dbf1f46df091026c9
:1025f800002713f0040f7ff40aaf94f8363013f075
:10260800080f7ff40caf94f86e30052b3ff41baf26
:10261800002e7ff411af94f8363013f0020f7ff4d8
:1026280044af94f8373013f0400fc7d094f86e30a9
:10263800032bc3d11af044fb636ac01a0028bddb20
:1026480094f8712094f87c309a423ff40daf02223e
:102658001021204603f0a2fd1af032fb0746b4f819
:1026680068601af055fb00fb06f0aafb003007eb88
:1026780090106062a2e73146002673e76ff0090107
:102688008fe66ff00e018ce66ff00e0189e60221ed
:1026980087e6022185e614f0020f3ff4bdaa013651
:1026a800caf85060b8f80e30aaf86630aaf85c305c
:1026b800404611f057feaaf86200504618f0e0fbb9
:1026c80001221221504603f069fd02238af86e3078
:1026d800fff7a2ba122100e71021fee61121fce65d
:1026e8001021fae61121f8e6201c00201c1c00200d
:1026f800d34d62109af86c1001f0ef016ff3451199
:102708008af86c109af836106ff345118af836106b
:10271800089a0244caf80c209342bff4b5abd31a06
:1027280009990b44caf84c30caf810200a9b934206
:102738000cd80b9bd21acaf80c20daf810300a9a77
:102748009a4203d80b9a9b1acaf810309af86e303e
:10275800032b02d0082b7ff4ddab049b43f004026b
:1027680093b20493fff7d6bb1af0aafa236bc01ae8
:0c2778000028bff66fae10265ee600bf22
:020000040000fa
:102784002de9f04f2ded028b9db00f2120201af082
:1027940085fa002800f09c86824b1b68002b40f3ce
:1027a4009786814c0026814fdff810829fed808a46
:1027b40008f294730593a3e3d4f8c4305d6894f8e5
:1027c400d12032b3227c012a45d0022a65d1b4f942
:1027d4003830b3f1ff3f27d00023764a4ff400711d
:1027e400b4f938001af0e2f8d4f8bc200221b4f9a4
:1027f40038000ff000fc38b9d4f8c4301b681b68eb
:1028040008f2e461284698470621204616f0b8feef
:102814006fe31b681b6808f29c61284698470121f6
:10282400204616f0adfe64e304f18002618a0120c3
:1028340012f08cfc2087b0f1ff3fcdd1d4f8c43026
:102844001b681b6808f5d861284698470121204673
:1028540016f096fe4de304f18002618a01201cf01b
:10286400ebf8a087b0f1ff3f0ad00023524a4ff49f
:1028740080711af06ff80321204616f081fe38e3c8
:10288400d4f8c4301b681b6808f20c7128469847ba
:102894000121204616f074fe2be31b681b6808f523
:1028a400e661284698470121204616f069fe20e398
:1028b400d4f8c430d3f804b03b4be31adb1003eb79
:1028c400c30203eb4203c3eb432303eb8343c3f190
:1028d400000a86e0d4f8c4301b681b6808f5e96177
:1028e400584698470421204616f04afe01e3b4f9fd
:1028f4003c001af09bfdfce20133c4f894302846f6
:102904001af0b6fd02460b46d4e9080109f004feac
:10291400c4e90801b9f1000f1adba36ae26a511c89
:102924008b4230d0934222dc616b01f1010161637f
:102934002bd022e0d4f8c4301b685b6808f5ed6145
:1029440058469847236b013ba26a1344236383e0f0
:10295400c9f10003a3621af0b5f9c4f88c0000238e
:1029640084f8cc300421204616f00afed5e75b1a21
:10297400226b13442363a36ae3620c3dadb285b3b7
:102984004ff0340925e0934206d1d4f8c4301b68d3
:102994001b68059958469847a36ae26a9342ecdd9e
:1029a400eae700bffc1b002058110020801900201a
:1029b40000007a44a5e201008fe20100e034000047
:1029c4004a463946b4f93c0010f008fc343dadb237
:1029d4003db1332df4d82a463946b4f93c0010f001
:1029e400fdfbb4f93c001af05dfa05460b2840f2f1
:1029f40082800c223946b4f93c0010f0effb0c281d
:102a04007ff468af3b684fea136949ea03691a0225
:102a140002f47f0249ea02091b0a03f47f4349eaec
:102a24000309c4f82890d4f89430002b7ff464afe1
:102a3400b9f1000ffff65baf0123c4f89430d4f86a
:102a4400c4301b685b68524608f2cc7158469847fc
:102a5400a26a002a7ff46eafa36ae36207a9b4f9fd
:102a64003c000ff0c5fdb4f93c001bf0d5fd1af095
:102a740000ff089dd4f8c4301b68628a0292020edb
:102a84000192c0f307420092d3f80490c0f30723e5
:102a9400c2b208f5b0615846c847d4f8c4301b68c0
:102aa400bdf8602002922a0e0192c5f307420092fb
:102ab400d3f80490c5f30723eab208f2b451584698
:102ac400c8476564bdf86030a4f864301af0faf8b9
:102ad400c4f88800c4f8a800a36ac4f89c30d4f8e9
:102ae4009430c4f89830236bc4f8a030b4f93c0097
:102af4001af09cfc75e7d4f894304bb994f8cf30b5
:102b0400012b40f0f6810421204616f039fdf0e156
:102b14001af0d8f8d4f8a830c31a22689342edd931
:102b2400d4f89420d4f898309a4213d1d4f8c4300d
:102b34001b681b6808f2b471584698471af0c2f82b
:102b4400c4f88c00002384f8cc300421204616f00d
:102b540017fdd3e70021204609f088facee7b4f93f
:102b64003c001af09ff938b994f8cf304bb10921e1
:102b7400204616f005fdbce1b4f93c001af056fc01
:102b8400b7e10521204616f0fbfcb2e194f8cd3004
:102b9400002b00f0b580b4f93c001af083f900284a
:102ba40040f0b68094f8cc305a1c84f8cc200a2b20
:102bb40000f2b3808021b4f93c001bf0a3ff00288d
:102bc40000f09781e36a5b421a0e42ea036219023b
:102bd40001f47f010a431b0a03f47f4313433b6060
:102be40000257d60bd608023fb603d61d4e9080160
:102bf4001af0c6fb020e42ea0062030203f47f03ea
:102c04001a43030a03f47f4313437b611af082f8e7
:102c1400d4f88c10d4f88830c91ab1fbf0f31a0e2a
:102c240042ea03624fea032c0cf47f0c42ea0c02e2
:102c34004fea132c0cf47f4c42ea0c02ba6100fbfd
:102c4400131307ee103ab8ee477a27ee087a07ee28
:102c5400900af8ee676ac7ee267a67ee887afcee89
:102c6400e77a17ee903a1a0e42ea0362190201f467
:102c74007f010a431b0a03f47f431343fb61236b65
:102c84001a0e42ea0362190201f47f010a431b0a85
:102c940003f47f4313433b62636b1a0e42ea0362fd
:102ca400190201f47f010a431b0a03f47f4313430f
:102cb4007b62e36a1a0e42ea0362190201f47f019d
:102cc4000a431b0a03f47f431343bb62fd623d6363
:102cd40034223946b4f93c0017f0fbf84ff04c09a4
:102ce4004a46294607a81bf0affc4a4607a9b4f98f
:102cf4003c0017f0eef8b4f93c0009f067fff8e087
:102d04000221204609f0b2f9012384f8cd3042e7cc
:102d1400b4f93c001af08afbebe00921204616f0d6
:102d24002ffce6e094f8cf30012b24d0b4f938001e
:102d34001af0eff9002800f0dc8007a9b4f9380094
:102d440014f085fa04f1400c07ad0fcdace80f0088
:102d54000fcdace80f000fcdace80f0095e80300f1
:102d64008ce803000721204616f00afcb4f9380069
:102d740019f0c9febde00921204616f001fcb8e0b7
:102d8400d4f8c430d3f80490b4f938001bf0c8fb6d
:102d94000546002866d0a36a002b4cd1bf4be31a2a
:102da400db1003ebc30203eb4203c3eb432303eb4c
:102db4008343d4f8c4201268d2f804a05a4208f21b
:102dc400cc714846d04719f07dffc4f88800c4f898
:102dd400a800a36ac4f89c30b4f938001bf02cfc9a
:102de4001af047fdd4f8c4301b68628a0292020ebe
:102df4000192c0f307420092d3f804a0c0f3072362
:102e0400c2b208f5b0614846d047d4f8c4301b6854
:102e1400b4f86420029294f84720019294f8462072
:102e24000092d3f804a094f8453094f8442008f2b2
:102e3400b4514846d047a36a0133a362d4f894201e
:102e44000132c4f89420e36228461af011fb0246ca
:102e54000b46d4e9080109f05ffbc4e908014ff00f
:102e640034091be0b4f9380019f04dfe20b9b4f967
:102e740038001bf020fac8b119f024ffc4f88c0004
:102e84000821204616f07cfb33e04a463946b4f963
:102e9400380010f0d3fd343dadb23db1332df4d83c
:102ea4002a463946b4f9380010f0c8fda36a63b95c
:102eb40094f8cf30012b1cd10821204616f060fb7a
:102ec40019f000ffc4f88c0013e019f0fbfed4f8ed
:102ed400a830c31a22689342ead90021204609f097
:102ee400c5f8e5e794f8cd30c3b30921204616f0c0
:102ef40047fb0136d8346a4b1b68b34240f3e8827f
:102f040094f8ce30012bf4d0023b102b00f2c58292
:102f140001a252f823f000bfbd270000b52800002d
:102f2400632b0000912b0000292d0000852d00004b
:102f3400e92e0000712f0000153000004130000020
:102f44001d32000001330000893300007934000091
:102f54002d310000e93300008f34000002212046a7
:102f640009f084f8012384f8cd30bee7d4f8c430e6
:102f74005d68237c012b2cd0022b2fd0474be31a06
:102f8400db1003ebc30203eb4203c3eb432303eb6a
:102f94008343c3f10009d4f8c4301b685b684a4614
:102fa40008f5ff6128469847204616f0d5fe94f8a8
:102fb400d130012b1ad0d4f8c4301b685b684a4660
:102fc40008f65c01284698470121204616f0d8faf5
:102fd4008fe7b4f93c0017f09df9cfe7b4f9380056
:102fe40018f0aaf94ff6ff732387c7e794f8cf3098
:102ff400002be0d1d4f8c4301b685b684a4608f65d
:103004002801284698470221204616f0b9fa70e7ad
:10301400d4f8c8001af066fe032808d10b21204614
:1030240016f0aefa19f04efec4f8ac0061e704f1f4
:103034004401d4f8c80017f020faefe7d4f8c430fc
:103044005d6894f8cf20012a17d0d4f8c8001af08c
:1030540049fe03281cd094f8443003f0f003e02b1d
:1030640020d1237c012b5ad0237c022b7ff441af47
:103074000c21204616f084fa3be71b681b6808f60f
:103084007c01284698470121204616f079fa30e75a
:103094000022a267a4f87c20e3e700bf58110020b7
:1030a400fc1b002004f1780204f14401d4f8c800a8
:1030b40012f0b2fec8b1d4f8c4301b6894f87d2075
:1030c400039294f87c20029294f87b20019294f865
:1030d4007a200092d3f8049094f8793094f8782008
:1030e40008f6dc012846c847bbe719f0ebfdd4f825
:1030f400ac30a0eb030919f00dfe00eb8000814514
:103104007ff6f7aed4f8c4301b681b6808f69c0140
:103114002846984719f0d6fdc4f8ac00e9e610211a
:10312400204616f02dfa9fe7d4f8c4305d6804f108
:103134004402618a01201bf084fca087b0f1ff3fa8
:103144005dd00023c94a4ff4807119f003fce26892
:103154000521b4f93c0006f0c7fa38b9d4f8c430f4
:103164001b681b6808f608112846984702220621a6
:10317400b4f93c0006f0b8fa38b9d4f8c4301b6886
:103184001b6808f5136128469847d4f8c810b4f9a9
:103194003c0015f0f5f907a9b4f93c000ff028fa42
:1031a400bdf86230a4f87e30d4f8c4301b681b68c4
:1031b40008f5657128469847d4f8c4301b68628abc
:1031c400029294f84720019294f846200092d3f892
:1031d400049094f8453094f8442008f65811284691
:1031e400c8471121204616f0cbf919f06bfdc4f83d
:1031f4008800d4f884300344c4f8903079e6d4f8d5
:10320400c4301b681b6808f20c71284698470121da
:10321400204616f0b5f96ce6d4f8c4305d68002297
:10322400618a01201af0edfd6087b0f1ff3f4fd0b5
:1032340000238f4a4ff4007119f0b8fbd4f88030a2
:10324400002b52d104f1440300220121b4f93a00c5
:1032540016f0bafa4ff48063a4f87e30d4f8c43080
:103264001b681b6808f5657128469847d4f8c43074
:103274001b68628a029294f84720019294f84620cf
:103284000092d3f8049094f8453094f8442008f55b
:1032940019612846c8470d21204616f071f9d4f863
:1032a400b8200321b4f93a000ef0a5fe38b9d4f8d9
:1032b400c4301b681b6808f6081128469847b4f9ff
:1032c4003a0019f0a3f919f0fdfcc4f8ac0010e6bb
:1032d400d4f8c4301b681b6808f5d86128469847a1
:1032e4000121204616f04cf903e604f18003628aba
:1032f4000121b4f93a0010f0bdfea3e794f8cf30f1
:10330400012b1ad0d4f8c430d3f80490b4f93a009d
:1033140019f0fffeb0b1b4f93a0019f0f4fb19f05a
:10332400d1fcc4f88800d4f884300344c4f8903045
:103334000e21204616f024f9dbe50f21204616f075
:103344001ff9d6e519f0befcd4f8ac50451b19f0b2
:10335400e1fc00eb800085427ff6cbadb4f93a0086
:1033640017f0eaff4ff6ff736387d4f8c4301b6885
:103374001b6808f6c811484698470f21204616f0e6
:10338400fff8b6e5204605f0c9ff01280bd0022856
:103394007ff4afad0f21204616f0f2f819f092fc3d
:1033a400c4f88c00a5e53422542138461bf04cf9ae
:1033b400b4f8b03073b1332b94bf1d4634255b1b76
:1033c400a4f8b0302a463946b4f93a000cf036fb7a
:1033d4008542edd0b4f93a0019f0aefe20460af069
:1033e400f9fe86e5227d0b21b4f93c0006f07cf958
:1033f400204605f093ff01280bd002287ff479ad15
:103404001221204616f0bcf819f05cfcc4f88c00bc
:103414006fe53422552138461bf016f9b4f8b05044
:10342400bdb14ff000094ff0340a01e0002d42d045
:10343400332d37d9343dadb209f134091ffa89f976
:1034440052463946b4f93c0016f043fd3428edd019
:1034540031e0a9462fe0b4f8b030a3eb0909a4f891
:10346400b09020460af0b6fe43e500bf8fe20100ab
:10347400a5e20100204614f001f9b4f93a0017f06e
:103484005bff4ff6ff73638733e5204614f0f6f8cd
:10349400b4f93c0016f03eff2be50121204616f05e
:1034a4006ff826e5a9441ffa89f92a463946b4f982
:1034b4003c0016f00efdb4f93c0009f087fb00282f
:1034c400c9d100221146b4f93c0017f0bcfc10e548
:0c34d4001db0bdec028bbde8f08f00bf06
:020000040000fa
:1034e0002d7478002d7278002d6900002d2d696ee5
:1034f0006465780055736167653a20697065726626
:1035000073203c2d74782073697a653e203c2d72bf
:10351000782073697a653e203c2d6920696e646568
:10352000783e0d0a000000000d0a69706572663a67
:1035300020496e76616c69642073657373696f6e80
:10354000206e756d6265722e204d696e3a20302caa
:10355000204d61783a2025640d0a0000697065727b
:1035600066733a2030203c2073697a65203c20360f
:10357000353533360d0a00006970657266733a207e
:103580004f4b2c20696e7374616e63652025642037
:1035900074782073697a652069732025640d0a00a8
:1035a0006970657266733a204f4b2c20696e737494
:1035b000616e63652025642072782073697a6520c6
:1035c00069732025640d0a0069706572666b3a2084
:1035d0005573696e6720696e64657820300d0a0046
:1035e0000d0a69706572662073657373696f6e3a50
:1035f000206e6f742073746172746564210d0a000b
:103600000d0a69706572663a20747279696e672076
:10361000746f2073746f7020697065726620696eb4
:103620007374616e63652025642e2e2e0d0a0000d2
:1036300055736167653a2069706572666b203c2d31
:103640006920696e6465783e0d0a00002d610000f6
:103650006970657266693a207573652061207661cc
:103660006c69642049502061646472657373210d34
:103670000a0000006970657266693a20556e6b6ecb
:103680006f776e20706172616d657465720d0a00ee
:1036900055736167653a20697065726669202d61ae
:1036a0002061646472657373203c2d6920696e64c7
:1036b00065783e0d0a0000000d0a69706572666942
:1036c0003a2063616e6e6f74206368616e67652077
:1036d0007468652069702061646472657373207713
:1036e00068696c652073657373696f6e3a20256431
:1036f0002072756e6e696e67210d0a0069706572c1
:1037000066693a204f4b2c207365742074686520dd
:103710004950206164647265737320746f20696e10
:103720007374616e63653a2025640d0a0000000021
:103730002d7300002d2d73657276657200000000f8
:103740002d7500002d2d7564700000002d620000a5
:103750002d2d62616e647769647468004d0000000d
:103760004b0000000a476976656e20696e2042575b
:103770003a20256c752b256c753d256c7500000075
:103780002d7800002d2d786d6974726174650000cc
:103790002d6300002d2d636c69656e7400000000c0
:1037a0002d7400002d2d74696d6500002d6e0000d4
:1037b0002d2d6e756d0000002d5300002d2d746fa2
:1037c000730000000a476976656e20544f532076d7
:1037d000616c75652069732025642c206d547970a7
:1037e000654f66536572766963653a25640000002b
:1037f0002d4d00002d2d6d73730000002d2d696e71
:1038000074657276616c00002d7000002d2d706f54
:10381000727400002d6c00002d2d6c656e00000090
:1038200069706572663a20546865206d696e696dcd
:10383000756d20646174616772616d2073697a656a
:103840002069732025640d0a00000000697065720c
:10385000663a205573696e672074686520646566f2
:1038600061756c7420696e74657266616365210da3
:103870000a0000002d2d2d2d2d2d2d2d2d2d2d2d22
:103880002d2d2d2d2d2d2d2d2d2d2d2d2d2d2d2d68
:103890002d2d2d2d2d2d2d2d2d2d2d2d2d2d2d2d58
:1038a0002d2d2d2d2d2d2d2d2d2d2d2d2d0d0a00b8
:1038b00069706572663a20536572766572206c692c
:1038c0007374656e696e67206f6e200055445000fa
:1038d0005443500020706f72742025640d0a00005c
:1038e0000d0a69706572663a20416c6c20696e73ce
:1038f00074616e63657320627573792e20526574ee
:103900007279206c61746572210d0a000d0a69706c
:103910006572663a205374617274696e67207365cc
:103920007373696f6e20696e7374616e63652025b1
:10393000640d0a00202020202d205b25326c752d7f
:103940002025326c75207365635d2025336c752fdf
:103950002025336c75202825326c752525292020db
:10396000202025346c75204b6270730d0a00000016
:10397000202020202d205b302e302d20256c752e10
:10398000256c75207365635d2025336c752f2025ac
:10399000336c75202825326c7525252920202020a0
:1039a00025346c75204b6270730d0a006970657266
:1039b000663a20696e7374616e63652025642063c6
:1039c0006f6d706c65746564202e2e2e00000000f3
:1039d000697065726620696e7374616e6365202517
:1039e000643a20547820646f6e652e20536f636ba9
:1039f000657420636c6f7365642e0d0a000000000f
:103a000069706572663a20696e7374616e636520d1
:103a1000256420636f6d706c657465642e0d0a00fb
:103a200069706572663a20536f636b6574207365c5
:103a30006e64206661696c65640d0a000d0a697028
:103a40006572663a20696e7374616e6365202564e1
:103a50002073746172746564202e2e2e0d0a00008e
:103a6000202020202d204c6f63616c202025752e96
:103a700025752e25752e257520706f72742025757d
:103a800020636f6e6e656374656420776974680d7a
:103a90000a000000202020202d2052656d6f7465e3
:103aa0002025752e25752e25752e257520706f7293
:103ab000742025750d0a0000202020202d2054613f
:103ac000726765742072617465203d20256c6420e6
:103ad0006270732c20706572696f64203d20256cc4
:103ae00064206d730d0a0000202020202d2d2d2d27
:103af0002d2d2d2d2d2d2d2d2d2d2d2d2d2d2d2df6
:103b00002d2d2d2d2d2d2d2d2d2d2d2d2d2d2d2de5
:103b10002d2d2d2d2d0d0a000d0a69706572663a46
:103b2000205761726e696e672c2054435020736574
:103b30007276657220646973636f6e6e656374205c
:103b400064657465637465640d0a0000697065726c
:103b5000663a204661696c656420746f20676574fd
:103b600020256420627974657320736f636b6574bc
:103b70002054582073706163650d0a006970657286
:103b8000663a20556e737570706f72746564204369
:103b90006f6e66696775726174696f6e0d0a0000f9
:103ba00069706572663a204372656174652054439a
:103bb0005020736f636b6574206661696c65640d7a
:103bc0000a00000069706572663a20536574206fc0
:103bd00066205258206275666665722073697a6540
:103be000206661696c65640d0a0000006970657289
:103bf000663a204372656174652055445020736fa6
:103c0000636b6574206661696c65640d0a00000071
:103c100069706572663a2050726f746f636f6c20c2
:103c20006572726f720d0a0069706572663a20558e
:103c30004450204765742041727261792046616961
:103c40006c65640d0a00000069706572663a202d8b
:103c500020466972737420706b74206964203d2063
:103c6000256c64202873686f756c64206265203051
:103c7000290d0a0069706572663a205265637620e4
:103c80006475706c69636174656420706b740d0a8f
:103c90000000000069706572663a205278207469ed
:103ca0006d6564206f75740d0a0000000d0a69705f
:103cb0006572663a20696e7374616e63652025646f
:103cc0002073657373696f6e2073746172746564b9
:103cd000202e2e2e0d0a00000d0a697065726620d6
:103ce000696e7374616e63652025643a2052782092
:103cf000646f6e652e20536f636b657420636c6f09
:103d00007365642e0d0a0000697065726620696e25
:103d10007374616e63652025643a2052656164792d
:103d200020666f7220746865206e657874207365f4
:103d30007373696f6e2e0d0a000000006970657262
:103d40006620696e7374616e63652025643a206332
:103d50006f6d706c657465642e0d0a006970657214
:103d6000663a20636c69656e742073657373696f5e
:103d70006e20636c6f7365642e0d0a006970657246
:103d8000663a2041525020756e61626c6520746ff6
:103d9000207265736f6c766520746865204d4143b1
:103da0002061646472657373206f662072656d6f45
:103db000746520736964652e0d0a000020202020a0
:103dc0002d2052656d6f74654e6f6465204d4143c3
:103dd0003a202578202578202578202578202578f8
:103de0002025780d0a00000069706572663a20533c
:103df0006574206f6620545820627566666572206f
:103e000073697a65206661696c65640d0a0000005b
:103e100069706572663a20536574206f6620545845
:103e20002071756575696e67206c696d69742066af
:103e300061696c65640d0a0069706572663a2043b9
:103e40006c69656e7420636f6e6e656374696e670e
:103e500020746f2025752e25752e25752e25752c21
:103e60002055445020706f72742025750d0a000093
:103e700069706572663a20436c69656e7420636f81
:103e80006e6e656374696e6720746f2025752e25cc
:103e9000752e25752e25752c2054435020706f7279
:103ea000742025750d0a000069706572663a205409
:103eb000435020436c69656e7420636f6e6e65635a
:103ec00074696f6e2074696d656f75740d0a0000fa
:103ed0003a20697065726620636f6d6d616e647300
:103ee0000000000069706572660000003a20203c06
:103ef00069706572663e20737461727420636d64cc
:103f00000000000069706572666b00003a203c6931
:103f1000706572666b3e206b696c6c20636d64002b
:103f200069706572666900003a203c697065726666
:103f30006920616464726573733e2020696e7465e4
:103f4000726661636520636d64000000697065726c
:103f5000667300003a203c6970657266732074785d
:103f60002f72782073697a653e2074782f727820da
:0c3f700073697a6520636d64000000bf77
:020000040000fa
:103f7c00281a00201c000000000000005411002032
:103f8c000400000000000000cc160020040000001b
:103f9c00000000003c19002004000000000000009c
:103fac00e81a00200c00000000000000b81a0020e5
:103fbc001000000000000000271a00200100000083
:103fcc0000000000561c0020020000000000000051
:103fdc005a1c002002000000000000003c1b0020c6
:103fec000400000000000000c81a002010000000af
:103ffc0000000000401b0020040000000000000036
:10400c00441b002004000000000000005e1c002087
:10401c000200000000000000601c002002000000f4
:10402c0000000000481b00200400000000000000fd
:10403c004c1b00200400000000000000501b00205e
:10404c000400000000000000d81a0020100000003e
:10405c0000000000621c00200200000000000000b4
:10406c00541b002004000000000000005c1c002019
:10407c000100000000000000601a00201800000081
:10408c0000000000581b002004000000000000008d
:10409c005c1b00200400000000000000601b0020de
:1040ac000400000000000000b818002041000000cf
:1040bc0000000000641b0020040000000000000051
:1040cc00681b002004000000000000004e1c0020b3
:1040dc0002000000000000006c1b00200400000027
:1040ec000000000000000020d007000000000000cd
:1040fc00701b00200400000000000000741b002056
:10410c000400000000000000781b002004000000e8
:10411c00000000007c1b00200400000000000000d8
:10412c00521c00200200000000000000801b002038
:10413c000400000000000000841b002004000000ac
:10414c0000000000a41a0020110000000000000074
:10415c00081a00201f00000000000000881b00202f
:10416c0004000000000000008c1b00200400000074
:10417c0000000000901b0020040000000000000064
:10418c00941b00200400000000000000f91800201f
:10419c0001000000000000007c1d00200100000058
:1041ac000100000001000000741d0020040000004c
:1041bc0001000000640000002c140020900000009e
:1041cc0000000000d00b0020700200000000000076
:1041dc00981b002004000000000000009c1b002025
:1041ec000400000000000000a01b002004000000e0
:1041fc0000000000a41b00200400000000000000d0
:10420c00a81b00200400000000000000ac1b0020d4
:10421c000400000000000000b01b0020040000009f
:10422c0000000000b41b002004000000000000008f
:10423c00b81b00200400000000000000f41a00204d
:10424c000c00000000000000781a0020180000008c
:10425c0000000000441a00201c00000000000000b8
:10426c00bc1b00200400000000000000b51a002058
:10427c000100000000000000c01b00200400000032
:10428c0000000000781d0020040000000100000068
:10429c00ffffffffc41b0020040000000000000013
:1042ac00c81b00200400000000000000001b0020c0
:1042bc000c000000000000000c1b00200c00000093
:1042cc0000000000bc140020900000000000000062
:1042dc00cc1b00200400000000000000d01b0020bc
:1042ec000400000000000000d41b002004000000ab
:1042fc0000000000511c0020010000000000000024
:10430c00d81b00200400000000000000dc1b002073
:10431c000400000000000000e0190020280000004c
:10432c0000000000e01b0020040000000000000062
:10433c007018002048000000000000006c1d0020d8
:10434c000600000001000000ffffffffffff000060
:10435c00e41b002004000000000000004c150020ad
:10436c008000000000000000241b0020080000005a
:10437c0000000000551c002001000000000000009f
:10438c00d00700200004000000000000e81b002003
:10439c000400000000000000581c00200100000078
:1043ac0000000000ec1b00200400000000000000d6
:1043bc00901a00201400000000000000541c002083
:1043cc000100000000000000601d00200c00000037
:1043dc0001000000f40100000000000000000000db
:1043ec003c1d002014000000010000000800080023
:1043fc000200010002000800000600060101540042
:10440c00501d002010000000010000000101000000
:10441c0089ea0000fd24010052990000cc1500200f
:10442c0080000000000000004c16002080000000fe
:10443c0000000000fc1800204000000000000000fc
:10444c00f01b00200400000000000000f41b002002
:10445c000400000000000000591c002001000000b6
:10446c00000000004c1000200801000000000000bb
:10447c00501c00200100000000000000681c0020ff
:10448c00d400000001000000789001000000000042
:10449c000000000000000000000000000000000010
:1044ac000000000000000000000000000000000000
:1044bc0000000000000000000000000000000000f0
:1044cc0000000000000000000000000000000000e0
:1044dc0000000000000000000000000000000000d0
:1044ec0000000000000000000000000000000000c0
:1044fc0000000000000000000000000000000000b0
:10450c00000000000000000000000000000000009f
:10451c00000000000000000000000000000000008f
:10452c00000000000000000000000000000000007f
:10453c00000000000000000000000000000000006f
:10454c00000000000000000000000000000000005f
:10455c000000000000000000000000007d1d002095
:10456c000100000001000000ff00000058110020b5
:10457c00d80000000000000080190020340000006a
:10458c0000000000f81b00200400000000000000e8
:10459c005d1c00200100000000000000fc1b00203e
:1045ac000400000000000000001c002004000000bb
:1045bc0000000000d0160020800000000000000069
:1045cc00b41900202c00000000000000041c002086
:1045dc0004000000000000005017002070000000d4
:1045ec0000000000c0170020600000000000000068
:1045fc00401900204000000000000000f8120020cc
:10460c00a000000000000000721d0020020000004d
:10461c000100000001000000081c00200400000044
:10462c00000000000c1c0020040000000000000032
:10463c00101c00200400000000000000fa180020ec
:10464c000200000000000000141c00200400000008
:10465c0000000000181c00200400000000000000f6
:10466c00641c002001000000000000002c1b002036
:10467c0008000000000000001c1c002004000000ca
:10468c0000000000201c00200400000000000000be
:10469c00b61a002002000000000000004c1c002094
:1046ac000200000000000000241c00200400000098
:1046bc0000000000281c0020040000000000000086
:1046cc002c1c00200400000000000000651c0020d1
:1046dc000100000000000000301c0020040000005d
:1046ec0000000000341b0020080000000000000047
:1046fc00981300209400000000000000181b0020fc
:10470c000c0000000000000030120020c800000067
:10471c0000000000661c00200100000000000000ea
:10472c00671c00200100000000000000341c002069
:10473c0004000000000000002018002050000000c1
:10474c0000000000400e00200c02000000000000e1
:10475c00381c002004000000000000003c1c00205d
:10476c000400000000000000401c002004000000b9
:10477c0000000000441c00200400000000000000a9
:10478c00481c002004000000000000000000000095
:10479c0000000000444444444444444444444444dd
:020000040000fa
:1047ac005478204279746520436f756e742d6c6f4c
:1047bc00776572203332626974732854784f544c85
:1047cc004f29000067e80100547820427974652075
:1047dc00436f756e742d7570706572203136626919
:1047ec0074732854784f54484929000071e801002b
:1047fc005478204672616d657320772f6f20657237
:10480c00726f722854784654434e542900000000ad
:10481c00000000007be8010054782042726f616454
:10482c0063617374204672616d65732854784243da
:10483c0046542900000000000000000085e801003b
:10484c005478204d756c7469636173742046726181
:10485c006d65732854784d46542900000000000003
:10486c00000000008fe801005478205061757365da
:10487c00204672616d6573285478504654290000a7
:10488c0000000000000000000000000099e801009a
:10489c0054782036342d62797465204672616d65ca
:1048ac007328547842465436342900000000000026
:1048bc0000000000a3e8010054782036352d313279
:1048cc00372062797465204672616d657328544295
:1048dc00465431323729000000000000ade80100d9
:1048ec005478203132382d32353520627974652078
:1048fc004672616d65732854424654323535290031
:10490c0000000000b7e801005478203235362d3510
:10491c0031312062797465204672616d657328545b
:10492c00424654353131290000000000c1e8010035
:10493c005478203531322d31303233206279746520
:10494c00204672616d6573285442465431303233bf
:10495c0029000000cbe80100547820313032342d8e
:10496c00313531382062797465204672616d65731a
:10497c00285442465431353138290000d5e801001d
:10498c005478204672616d6573203e3d203135317f
:10499c0038206279746528475442463135313829bc
:1049ac0000000000dfe80100547820556e64657249
:1049bc0072756e204672616d6573206e6f74205433
:1049cc00586564285478545552290000e9e80100d0
:1049dc0054782053696e676c6520436f6c6c6973f7
:1049ec00696f6e204672616d657328547853434627
:1049fc0029000000f3e80100547820322d313520d5
:104a0c00436f6c6c6973696f6e204672616d657370
:104a1c002854784d4346290000000000fde80100b1
:104a2c00547820313620436f6c6c6973696f6e203b
:104a3c004672616d65732854784543434e54290082
:104a4c000000000007e901005478206c61746520b7
:104a5c00436f6c6c6973696f6e204672616d657320
:104a6c002854784c43434e542900000011e90100ae
:104a7c005478204465666572726564204672616d77
:104a8c006573285478445446290000000000000047
:104a9c00000000001be90100547820436172726928
:104aac0065722053656e7365206572726f72204655
:104abc0072616d65732854784353452925e90100cb
:104acc005278204279746520436f756e742d6c6f2b
:104adc00776572203332626974732852784f524c66
:104aec004f2900002fe9010052782042797465208b
:104afc00436f756e742d75707065722031366269f6
:104b0c0074732852784f52484929000039e9010042
:104b1c005278204672616d657320772f6f20657215
:104b2c00726f722852784652434e5429000000008e
:104b3c000000000043e9010052782042726f61646a
:104b4c0063617374204672616d65732852784243b9
:104b5c004652290000000000000000004de9010051
:104b6c005278204d756c7469636173742046726160
:104b7c006d6573202852784d4652290000000000c4
:104b8c000000000057e901005278205061757365f0
:104b9c00204672616d657328527850465229000088
:104bac0000000000000000000000000061e90100ae
:104bbc0052782036342d62797465204672616d65a9
:104bcc007328527842465236342900000000000007
:104bdc00000000006be9010052782036352d31328f
:104bec00372062797465204672616d657328544272
:104bfc0046523132372900000000000075e90100ef
:104c0c005278203132382d32353520627974652056
:104c1c004672616d6573285442465232353529000f
:104c2c00000000007fe901005278203235362d3526
:104c3c0031312062797465204672616d6573285438
:104c4c0042465235313129000000000089e901004b
:104c5c005278203531322d313032332062797465ff
:104c6c00204672616d65732854424652313032339e
:104c7c002900000093e90100527820313032342da4
:104c8c00313531382062797465204672616d6573f7
:104c9c002854424652313531382900009de9010033
:104cac005278204672616d6573203e3d203135315e
:104cbc003920627974657328544d58424652290044
:104ccc0000000000a7e901005278204672616d6572
:104cdc0073203c20363420627974657328527855e1
:104cec00465229000000000000000000b1e901005c
:104cfc005278204672616d6573203e203135313813
:104d0c002062797465732852784f4652290000004e
:104d1c0000000000bbe901005278206572726f72ce
:104d2c00204672616d6573203e203135313820622a
:104d3c00797465732852784a52290000c5e901003c
:104d4c00527820435243206572726f722046726112
:104d5c006d657328527846435345290000000000c6
:104d6c0000000000cfe901005278204c656e67749a
:104d7c0068206669656c64206572726f7220467279
:104d8c00616d65732852784c46464529d9e9010076
:104d9c0052782073796d626f6c206572726f72201d
:104dac004672616d65732852785253452900000094
:104dbc0000000000e3e90100527820616c69676e25
:104dcc006d656e74206572726f72204672616d65ce
:104ddc00732852784145290000000000ede90100dc
:104dec005278205265736f75726365204572726fcd
:104dfc007220285278525245290000000000000011
:104e0c0000000000f7e901005278206f766572729d
:104e1c00756e206572726f72204672616d657328b3
:104e2c005278524f452900000000000001ea0100b1
:104e3c0052782049504864722043686b73756d201a
:104e4c006572726f72204672616d65732852784973
:104e5c00484345290bea0100527820544350204323
:104e6c00686b73756d206572726f72204672616d1e
:104e7c0065732852785443452900000015ea010057
:104e8c005278205544502043686b73756d206572c1
:104e9c00726f72204672616d657328527855434566
:084eac00290000001fea0100cb
:020000040000fa
:104eb4002de9f04f8db0d0f850a00a68436d846d91
:104ec40083ea040e0eea0a0e8eea040ed84bc46c72
:104ed40023440a9213449e440aeb7e6e4e68436d4b
:104ee4008aea030707ea0e075f40d24b856d2b441d
:104ef400009633441f440eeb37578b681a468aeaf0
:104f04000e053d4085ea0a05cb4b446d23440192ce
:104f140013441d4407ebf535cb681c468eea07069f
:104f24002e4086ea0e06c54b5344029423441e4485
:104f340005ebb6260b691c4687ea050333407b4024
:104f4400bf4a039422449644734406eb73694a6946
:104f5400134685ea060404ea09046c40b94a04933a
:104f64001a4417443c4409eb34548b6986ea090219
:104f740022407240b44f05931f443d442a4404eb3d
:104f8400f232cf6989ea040808ea020888ea0908c3
:104f9400ae4d06973d442e44b04402ebb8280f6a48
:104fa40084ea020c0cea080c8cea040ca84d07975e
:104fb4003d4409eb05039c4408eb7c6c4d6a82ea92
:104fc400080909ea0c0989ea0209a24b08952b444d
:104fd4001c44a1440ceb39598b6a88ea0c0e0eea86
:104fe400090e8eea080e0993a3f524434f3b1a4495
:104ff400964409ebfe3eca6a16468cea090505eaa0
:105004000e0585ea0c05944b1344984445440eeb75
:10501400b525d1f8308089ea0e072f4087ea0907c1
:105024008e4b43449c44674405eb7767d1f834c006
:105034008eea05033b4083ea0e03894a62449144a5
:105044004b4407eb3353d1f8389085ea07041c40ee
:105054006c40844a4a449644744403ebf434d1f8d3
:105064003ce087ea030222407a407f4971440d44c0
:105074002a4404ebb22284ea020b0bea030b8bea08
:10508400040b7a49009d29440f44bb4402ebfb6b9b
:1050940082ea0b07274057407549059d29440b4474
:1050a4001f440bebf7578bea0703134083ea0b0308
:1050b40070490b9631440c44234407ebb34387ea0d
:1050c400030505ea0b057d406b490a9c21440a440b
:1050d400154403eb353583ea05023a405a406749e3
:1050e400049e31448b445a4405ebf26285ea020182
:1050f40019406940624c099e34442744394402eb08
:10510400f15182ea01042c4054405e4f77443b4401
:105114001c4401ebb44481ea040313404b405a4f4e
:10512400039e37443d442b4404eb333384ea030b9e
:105134000bea010b8bea040b544d089e35442a44b8
:10514400934403ebfb6b83ea0b0727405f40504a11
:105154004a4411440f440bebf7578bea07051d40f3
:1051640085ea0b054b4a02990a441444254407eb8b
:10517400b54587ea050202ea0b027a404649079ed2
:1051840031440b441a4405eb323285ea02033b40b6
:105194006b40424961448b445b4402ebf36382ea13
:1051a4000301294051403e4c019e34442744394474
:1051b40003ebf15183ea010414405c40394f069e2d
:1051c40037443d442c4401ebb44481ea040b0bea1c
:1051d40003054d40344f47443a44154404eb3535f8
:1051e400049fa7f5b822a2f2be6213448bea050b12
:1051f4005b4405eb337384ea05025a402b4f079e48
:1052040037443944114403eb715185ea030b8beaab
:10521400010b274a0b9f3a4414445c4401eb344489
:1052240083ea01076740234a4a4415442f4443e074
:1052340078a46ad756b7c7e8db702024eecebdc188
:10524400af0f7cf52ac68747134630a8019546fd63
:10525400d8988069aff7448bbed75c892211906bd4
:10526400937198fd8e4379a62108b44962251ef6f0
:1052740040b340c0515a5e26aac7b6e95d102fd686
:105284005314440281e6a1d8c8fbd3e7e6cde1215b
:10529400d60737c3870dd5f4ed145a4505e9e3a9bc
:1052a400f8a3effcd9026f678a4c2a8d81f67187c7
:1052b40022619d6d0c38e5fd04eb772781ea040239
:1052c4007a40944d009e35442b44134407eb3373ca
:1052d40084ea07025a40904d039e35442944114400
:1052e40003eb715187ea030b8bea010b8b4a069d92
:1052f4002a441444a34401eb3b4b83ea010282eaaf
:105304000b02874c099d2c4427443a440beb722230
:1053140081ea0b045440834d65442b44234402eb3f
:1053240033738bea02075f407f4c0a9e3444214466
:105334000f4403eb775782ea03057d407b49029cc7
:1053440021448b445d4407eb354583ea070b8bea24
:10535400050b7749059c21440a44934405eb7b2bb8
:1053640087ea050484ea0b04724a08990a44134440
:105374001c440beb347485ea0b0161406e4b4344cf
:105384001f44394404eb71518bea04034b406b4acc
:10539400724415441d4401eb354584ea01026a4018
:1053a400674b019f3b449b445a4405eb722262eadb
:1053b40001036b40634f37443c44234402ebb36323
:1053c40063ea050b8bea020b5f4c069f3c442144c5
:1053d4008b4403ebbb5b6bea02075f405b494944c8
:1053e4000d442f440beb774767ea030484ea0b046c
:1053f4005749049d29440a44144407ebf42464eafd
:105404000b057d40534a424413441d4404ebb565e7
:1054140065ea070888ea04084f4b02990b449b4449
:10542400d84405ebb85868ea04036b40099aa2f51e
:105434008016a6f683363e44334408eb734363ea8e
:10544400050989ea08094549009e31440c44a144f0
:1054540003ebf92969ea08065e40414a07990a44c0
:1054640015442e4409ebb66666ea030181ea090194
:105474003c4a72449044414406ebb15161ea090448
:105484007440394a059d2a4413441c4401eb744476
:1054940064ea06054d40354b634499444d4404eb9e
:1054a400f52565ea01076740314a039b1a4416440f
:1054b400374405ebb76767ea04036b402d4a0b9e3c
:1054c40032441144194407ebb15161ea05067e40a8
:1054d400294a019b1a441444344401eb7444c36cb8
:1054e4003b44c36464ea07074f40244b089a1344bf
:1054f4001d442f440aeb040505ebf7250565436db0
:105504001c444465836d1944816500200db0bde8d9
:10551400f08f00bf44eabea4a9cfde4b604bbbf6bc
:1055240070bcbfbec67e9b28fa27a1ea8530efd4a3
:10553400051d880439d0d4d9e599dbe6f87ca21f8f
:105544006556acc4442229f497ff2a43a72394ab9d
:1055540039a093fcc3595b6592cc0c8fd15d8485d3
:105564004f7ea86fe0e62cfe144301a3a111084e60
:10557400827e53f735f23abdbbd2d72a91d386eb5c
:020000040000fa
:10558400aa4b834240f01e83a94b93f90020531e7b
:10559400dbb2012b00f216832de9f04f85b0a54b49
:1055a4001b6863b1012a1bd0a24b1c689f4b1b884c
:1055b400002b00f0f98200252f469c4e72e09e4b92
:1055c4001b6868469847002800f3c08220b90098f9
:1055d40010b103f0c7fab9e2954b00221a70b5e294
:1055e400964b1b68b3f1ff3fded1954a002105209d
:1055f40018f052fa914b1860b0f1ff3f25d017f024
:1056040089fb00eb800303f2e7338e4aa2fb0323fa
:105614009b094ff47a7202fb03f3b3fbf0f38a4a5b
:1056240013600225894c03e001351034272dbbd0cb
:105634002368002bf8d0b4f90a20002af4d02146bc
:10564400a8b217f017fb0028eed119f07ff888b93b
:105654000ff076fa764bff221a7019f077f80028cb
:1056640000f0748219f06cf84ff0ff32784912f0b0
:1056740025fc6be219f064f80522764912f01efc51
:10568400e6e7032304222146304612f01dfe94f877
:10569400433043f0800384f8433001356c3433885d
:1056a4009d4242dae06c0028f7d0636c9b6998470e
:1056b40094f8433013f0400fefd0636c5b69e06cf7
:1056c40098470028dddb0228e7d10097019702976d
:1056d400039740f2dc53adf80a30636c1b6c6946e7
:1056e400206d98470098e063bdf80430a4f840307a
:1056f400bdf80630003318bf012394f8432063f348
:10570400451284f84320bdf80a30a4f85e3094f8ba
:10571400423043f0400384f84230d3b203f0bf0375
:1057240043f0800384f84330b7e7414a92f90020fc
:10573400012a25d0002013f0c3f9474b1b6833b965
:10574400464b1a68464b1b68134300f0ff81424bdb
:105754001b68002b40f08a800025404b1b68002bff
:1057640000f07a813d4b00221a60324b1c682f4bab
:105774001b88002b00f009811746dff8ec80dae083
:105784002c4a1668002b00f01582314600252a4663
:10579400012706e007fa02f0054301326c31934217
:1057a40012d091f8430000f00c04042cf2d110f054
:1057b400800f00f0cb8191f8420010f0400fecd044
:1057c40007fa02f00543e8e7012202fa03f3013b7a
:1057d400ab4200f0ef81154b1b88bbb1002444f2af
:1057e4004008124f4ff0030904e001346c363b8843
:1057f4009c420bdab6f8423018ea030ff5d04b4658
:1058040004223146384612f05ffdeee7084bff22d2
:105814001a7018f09bff002800f0988118f090ff90
:105824002a46104912f04afb90e100bf441a0020b6
:10583400b51a0020b81b0020bc1b0020781d0020d6
:10584400d9cb0100d34d6210b01b0020f00b002017
:10585400f06a0000c06a0000a81b0020c01b0020e2
:10586400ac1b0020606b0000381400200025b94bed
:105874001d6018f0b9ff044616f0f2fc06460f4608
:1058840022462b4616f0c4fdb34b1860b34aa2fb64
:10589400043292092b463046394616f0b9fdb04b16
:1058a4001860b04b1c68b04b1b88002b00f0718152
:1058b400ad4e04e001356c3433889d4219da94f816
:1058c400423013f0400ff5d0636c5b6a206d98474b
:1058d40094f8603003f001039842ebd094f8603000
:1058e40043f0020360f3820360f3000384f8603042
:1058f400e0e7012531e7012534e7002603e08c6267
:10590400404618f04afa636c5b6b32463146206db0
:10591400984701460028f2d1944a13680133136072
:105924002de0636c9b6b206d984701376c348e4b74
:105934001b88bb4229dd94f8423013f0400ff4d0a9
:10594400b4f85a60636c5b6d206d98470643b6b239
:1059540019f0ccf8b4f85a3023ea0603a4f85a3004
:1059640019f0c8f8b4f85c303343a4f85c30636cc5
:105974001b6d3146206d984716f0160fbdd194f873
:10598400433013f0200fd0d0cbe70027784e06f138
:105994000c04dff8e88108f10609204618f0faf84b
:1059a400844600284fd0dcf814309a89130a43ea5d
:1059b40002239bb240f60602934216d0b3f5006f61
:1059c4000ad04ff6ff7293420ad001226ff00c0105
:1059d400604616f0cdfbe0e7ca464ff0010b07e046
:1059e40008f10c0a4ff0020b02e04ff0000bc24624
:1059f400bcf8223023f47c539bb2acf82230baf8c2
:105a040002201343acf82230baf8040000eb400043
:105a1400614606eb800018f0c0f9012303fa0bfb82
:105a24001bea070fb9d147ea0b07baf8043051480b
:105a340000eb0310038943f00103038100220121d9
:105a440017f0baffa9e719f051f84a4a138b23f06b
:105a54000103138319f04ef8424b1c68424b1b8818
:105a6400a3b3002640f28668dff814913e4f0ce0a1
:105a740094f8603013f0020f17d10023a4f85c30bf
:105a840001366c343b88b34220dd94f8423013f085
